{
  "transactions": [
    {
      "hash": "0xfa7518c9adacd6a6e2a34a2cdef89bf6d9fc89b508e9537b20d55badc5a6701f",
      "transactionType": "CALL",
      "contractName": null,
      "contractAddress": "0x4aa78e18229783cbd4263b0473300c65cdc96993",
      "function": "mintNft(string)",
      "arguments": [
        "https://ipfs.io/ipfs/bafybeig37ioir76s7mg5oobetncojcm3c3hxasyd4rvid4jqhy4gkaheg4/?filename=0-PUG.json"
      ],
      "transaction": {
        "from": "0x82ff0ef0428785ea9bb8eee4384925341d6bea44",
        "to": "0x4aa78e18229783cbd4263b0473300c65cdc96993",
        "gas": "0x453df",
        "value": "0x0",
        "input": "0xda86f4a90000000000000000000000000000000000000000000000000000000000000020000000000000000000000000000000000000000000000000000000000000006568747470733a2f2f697066732e696f2f697066732f62616679626569673337696f6972373673376d67356f6f6265746e636f6a636d3363336878617379643472766964346a71687934676b61686567342f3f66696c656e616d653d302d5055472e6a736f6e000000000000000000000000000000000000000000000000000000",
        "nonce": "0x29",
        "chainId": "0xaa36a7"
      },
      "additionalContracts": [],
      "isFixedGasLimit": false
    }
  ],
  "receipts": [
    {
      "status": "0x1",
      "cumulativeGasUsed": "0x103172f",
      "logs": [
        {
          "address": "0x4aa78e18229783cbd4263b0473300c65cdc96993",
          "topics": [
            "0xddf252ad1be2c89b69c2b068fc378daa952ba7f163c4a11628f55a4df523b3ef",
            "0x0000000000000000000000000000000000000000000000000000000000000000",
            "0x00000000000000000000000082ff0ef0428785ea9bb8eee4384925341d6bea44",
            "0x0000000000000000000000000000000000000000000000000000000000000000"
          ],
          "data": "0x",
          "blockHash": "0x22de8be91599cc1464d91cd82a00dd5219d26ca9d17cbd5927b5fb176f9098c0",
          "blockNumber": "0x7b44c1",
          "blockTimestamp": "0x67f55838",
          "transactionHash": "0xfa7518c9adacd6a6e2a34a2cdef89bf6d9fc89b508e9537b20d55badc5a6701f",
          "transactionIndex": "0x5b",
          "logIndex": "0x167",
          "removed": false
        }
      ],
      "logsBloom": "0x00000000000000000000000000000000000000000000000000000000000000000000080000000000000000000000000000000000000000000000000000000000000000000000000000000008000000000000000000000000000000000000000000000000020000000000020000000804000000000000000000000010000000000000000000000000000000000000000000000000000000000000000000000010000000000000000000000000000000000000000000000000000000000000000000000002000000000000000000000000000000000000000000000000000020000002000000000000000000000000000000000000000000000000020000000000",
      "type": "0x2",
      "transactionHash": "0xfa7518c9adacd6a6e2a34a2cdef89bf6d9fc89b508e9537b20d55badc5a6701f",
      "transactionIndex": "0x5b",
      "blockHash": "0x22de8be91599cc1464d91cd82a00dd5219d26ca9d17cbd5927b5fb176f9098c0",
      "blockNumber": "0x7b44c1",
      "gasUsed": "0x32215",
      "effectiveGasPrice": "0x9973bbe",
      "from": "0x82ff0ef0428785ea9bb8eee4384925341d6bea44",
      "to": "0x4aa78e18229783cbd4263b0473300c65cdc96993",
      "contractAddress": null
    }
  ],
  "libraries": [],
  "pending": [],
  "returns": {},
  "timestamp": 1744132152,
  "chain": 11155111,
  "commit": "ca52395"
}